:020000040800F2
:10000000004000202D6900087D6900087D69000816
:100010007D6900087D6900087D6900080000000016
:100020000000000000000000000000007D690008E2
:100030007D690008000000007D690008E55E000899
:100040007D6900087D6900087D6900087D690008F8
:100050007D6900087D6900087D6900087D690008E8
:100060007D6900087D6900087D6900087D690008D8
:100070007D6900087D6900087D6900087D690008C8
:100080007D6900087D6900087D6900087D690008B8
:10009000F55E00087D6900087D6900087D6900083B
:1000A0007D6900087D6900087D6900087D69000898
:1000B0007D69000800000000000000007D69000864
:1000C0007D6900087D6900087D6900080000000066
:1000D0007D6900087D6900087D6900087D69000868
:1000E0007D6900087D6900087D6900080000000046
:1000F0000000000000000000000000000000000000
:100100000000000000000000000000007D69000801
:1001100000000000000000007D69000800000000F1
:1001200000000000000000000000000000000000CF
:1001300000000000000000000000000000000000BF
:100140007D6900087D6900080000000000000000D3
:10015000000000000000000000000000000000009F
:100160007D6900087D6900087D6900087D690008D7
:100170007D69000800000000000000000000000091
:08018000000000007D69000889
:1001880010B5054C237833B9044B13B10448AFF3C9
:1001980000800123237010BD6001002000000000D2
:1001A800C869000808B5034B1BB103490348AFF3FE
:1001B800008008BD0000000064010020C869000834
:1001C80080B500AF084A084B1B6843F01003136062
:1001D800032000F06DFF002000F008F805F008FE8D
:1001E8000023184680BD00BF0020024080B582B0C1
:1001F80000AF7860124B1A68124B1B7819464FF4FF
:100208007A73B3FBF1F3B2FBF3F3184600F085FF02
:100218000346002B01D001230EE07B680F2B0AD880
:10022800002279684FF0FF3000F04DFF064A7B68E6
:100238001360002300E0012318460837BD4680BD3F
:1002480018010020040000200000002080B400AF46
:10025800064B1B781A46064B1B681344044A136066
:1002680000BFBD465DF8047B704700BF0400002056
:10027800A003002080B400AF034B1B681846BD469E
:100288005DF8047B704700BFA003002080B584B0F0
:1002980000AF7860FFF7EEFFB8607B68FB60FB6833
:1002A800B3F1FF3F05D0094B1B781A46FB6813448E
:1002B800FB6000BFFFF7DEFF0246BB68D21AFB688F
:1002C8009A42F7D300BF1037BD4680BD0400002016
:1002D80080B59CB000AF7860002387F86F300023AA
:1002E800BB660023FB607B68002B01D1012367E11B
:1002F8007B681B69002B7B685B6C03F01003002B89
:1003080076D17B685B6C002B52D17B6800229A64A3
:100318007B6800221A657B680022DA647B68002209
:1003280083F84020786805F0B1FD7B681B689B68FE
:1003380003F08053002B3BD1786800F08FFD034613
:1003480087F86F307B685B6C03F01003002B2FD1AC
:1003580097F86F30002B2BD17B685B6C23F48853A4
:1003680023F0020343F002027B685A647B681B682F
:100378007A681268926822F040529A607B681B681B
:100388007A681268926842F080529A608E4B1B68B5
:100398008E4AA2FB03239A0C13469B0013445B006E
:1003A800FB6002E0FB68013BFB60FB68002BF9D1B6
:1003B8007B681B689B6803F08053002B07D07B6821
:1003C8001B689B6803F00053B3F1005F10D17B6892
:1003D8005B6C23F0120343F010027B685A647B685D
:1003E8009B6C43F001027B689A64012387F86F30A5
:1003F8007B685B6C03F01003002B40F0D48097F807
:100408006F30002B40F0CF807B681B689B6803F03F
:100418000403002B40F0C7807B685B6C23F4817376
:1004280043F002027B685A64694B7B6600233B6198
:100438007B681B689B6803F00303012B08D17B686A
:100448001B681B6803F00103012B01D1012300E0A5
:100458000023002B1CD13B69002B10D03B699B6803
:1004680003F00303012B07D13B691B6803F0010369
:10047800012B01D1012300E00023002B08D17B6E62
:100488009B6823F440327B685B681A437B6E9A60F2
:100498007B68DB695A037B689B6B012B02D04FF4A6
:1004A800805300E000231A437B68DB681A437B68AB
:1004B8009B681343BA6E1343BB667B685B6A012B68
:1004C8001BD17B68DB69002B09D17B689B6A013BE8
:1004D8005A04BB6E134343F48033BB660DE07B685C
:1004E8005B6C23F0220343F020027B685A647B682C
:1004F8009B6C43F001027B689A647B68DB6A012B82
:1005080007D07B68DA6A7B681B6B1343BA6E1343A8
:10051800BB667B681B689B6803F00C03002B13D138
:100528007B681A687B681B68DB6823F4804323F0C8
:100538000203D3607B689B699A037B685B6B5B00F3
:100548001343BA6E1343BB667B681A687B681B68E3
:10055800D968204B0B40B96E0B43D3607B681B698D
:10056800012B0CD17B681B687A681268126B22F029
:100578000F017A68126A013A0A431A6307E07B6836
:100588001B687A681268126B22F00F021A637B6884
:1005980000229A647B685B6C23F0030343F001023A
:1005A8007B685A640AE07B685B6C23F0120343F0B3
:1005B80010027B685A64012387F86F3097F86F3010
:1005C80018467037BD4680BD1801002083DE1B43E6
:1005D8000003005007C0F0FF80B584B000AF78601A
:1005E8000023FB737B681B689B6803F00403002BE4
:1005F80058D17B6893F84030012B01D1022354E095
:100608007B68012283F84020786800F0C9FB034624
:10061800FB73FB7B002B40D17B685B6C23F470631E
:1006280023F0010343F480727B685A647B685B6C37
:1006380023F480127B685A647B681B68DB6803F0CC
:100648000073002B07D07B685B6C23F4405343F4A2
:1006580080527B685A647B685B6C03F48053B3F503
:10066800805F06D17B689B6C23F006027B689A64E6
:1006780002E07B6800229A647B68002283F84020AD
:100688007B681B681C221A607B681B687A68126882
:10069800926842F004029A6006E07B68002283F8C0
:1006A800402001E00223FB73FB7B18461037BD4650
:1006B80080BD000080B586B000AF78603960002347
:1006C8003B617B685B69082B02D108237B612EE0C4
:1006D800524BFB60FB689B6803F01F03002B12D191
:1006E8007B681B68DB6803F00103012B1DD17B6865
:1006F8005B6C43F020027B685A647B68002283F8B5
:100708004020012386E0FB689B6803F44043002BEC
:100718000BD07B685B6C43F020027B685A647B6873
:10072800002283F84020012374E00C237B617B685E
:100738001B68DB683B61FFF79DFDB8601AE03B680A
:10074800B3F1FF3F16D03B68002B07D0FFF792FDAF
:100758000246BB68D21A3B689A420BD97B685B6C2D
:1007680043F004027B685A647B68002283F84020C7
:1007780003234FE07B681B681A687B691340002BD2
:10078800DDD07B685B6C43F400727B685A647B68DD
:100798001B68DB6803F44063002B31D13B6903F429
:1007A8000053002B2CD17B681B681B6803F00803DF
:1007B800082B25D17B681B689B6803F00403002B7A
:1007C80012D17B685B6C23F480727B685A647B6807
:1007D8005B6C03F48053002B12D17B685B6C43F095
:1007E80001027B685A640BE07B685B6C43F0200273
:1007F8007B685A647B689B6C43F001027B689A644F
:100808003B6903F48043002B03D17B681B687A693A
:100818001A60002318461837BD4680BD00030050F3
:1008280080B483B000AF78607B681B681B6C184687
:100838000C37BD465DF8047B7047000090B49CB04F
:1008480000AF78603960002387F86F300023FB60C1
:100858007B6893F84030012B01D1022397E27B6833
:10086800012283F840207B681B689B6803F004031F
:10087800002B40F07B823B685B68042B1CD87B68AC
:1008880019687B681B68186B3B685A6813465B00DD
:1008980013445B001A461F239340DB4318403B6810
:1008A8001C683B685A6813465B0013445B0004FAF3
:1008B80003F303430B6363E03B685B68092B1ED8B3
:1008C8007B6819687B681B68586B3B685A681346D5
:1008D8005B0013445B001E3B1F2202FA03F3DB4359
:1008E80018403B681C683B685A6813465B00134411
:1008F8005B001E3B04FA03F303434B6340E03B6891
:100908005B680E2B1ED87B6819687B681B68986B20
:100918003B685A6813465B0013445B003C3B1F224C
:1009280002FA03F3DB4318403B681C683B685A68CB
:1009380013465B0013445B003C3B04FA03F3034398
:100948008B631DE07B6819687B681B68D86B3B6804
:100958005A6813465B0013445B005A3B1F2202FA95
:1009680003F3DB4318403B681C683B685A6813462E
:100978005B0013445B005A3B04FA03F30343CB6365
:100988007B681B689B6803F00C03002B40F0E58034
:100998003B681B68092B1CD97B6819687B681B6836
:1009A80098693B681A6813465B0013441E3B07228C
:1009B80002FA03F3DB4318403B689C683B681A68FB
:1009C80013465B0013441E3B04FA03F303438B6195
:1009D80019E07B6819687B681B6858693B681A6866
:1009E80013465B001344072202FA03F3DB43184063
:1009F8003B689C683B681A6813465B00134404FA1A
:100A080003F303434B613B685A697B681B68DB68E7
:100A1800DB0803F003035B0002FA03F3BB663B68E1
:100A28001B69013B032B4FD801A252F823F000BFEA
:100A3800490A00086B0A00088D0A0008AF0A000876
:100A48007B681A687B681B68196EA14B0B40396874
:100A580009688806B96E01430B4343F000431366E7
:100A68007BE07B681A687B681B68596E984B0B4063
:100A7800396809688806B96E01430B4343F000439F
:100A880053666AE07B681A687B681B68996E904BAE
:100A98000B40396809688806B96E01430B4343F077
:100AA8000043936659E07B681A687B681B68D96EB7
:100AB800874B0B40396809688806B96E01430B43B8
:100AC80043F00043D36648E07B681B681B6E03F065
:100AD800F8423B681B689B069A4207D17B681B68F3
:100AE8007A681268126E22F000421A667B681B68E8
:100AF8005B6E03F0F8423B681B689B069A4207D17D
:100B08007B681B687A681268526E22F000425A6647
:100B18007B681B689B6E03F0F8423B681B689B066A
:100B28009A4207D17B681B687A681268926E22F035
:100B380000429A667B681B68DB6E03F0F8423B68EC
:100B48001B689B069A4207D17B681B687A68126803
:100B5800D26E22F00042DA6600BF7B681B689B6891
:100B680003F00303012B08D17B681B681B6803F0A3
:100B78000103012B01D1012300E00023002B40F0E9
:100B880000813B68DB68012B0FD07B681B687A68A3
:100B98001268D2F8B0103A681268012000FA02F21E
:100BA800D2430A40C3F8B0204AE07B681B687A68E1
:100BB8001268D2F8B0103A681268012000FA02F2FE
:100BC8000A43C3F8B0203B681B68092B1CD97B6813
:100BD80019687B681B6898693B681A6813465B004C
:100BE80013441B3B072202FA03F3DB4318403B681C
:100BF8009C683B681A6813465B0013441B3B04FA65
:100C080003F303438B611BE07B6819687B681B68EF
:100C180058693B681B685A1C13465B00134407223B
:100C280002FA03F3DB4318403B689C683B681B6887
:100C38005A1C13465B00134404FA03F303434B6145
:100C4800244B7B663B681B68102B05D17B6E9B6829
:100C580003F40003002B14D03B681B68112B05D14B
:100C68007B6E9B6803F08073002B0AD03B681B687F
:100C7800122B40F086807B6E9B6803F48003002B68
:100C88007FD100233B617B681B689B6803F00303EB
:100C9800012B08D17B681B681B6803F00103012B3B
:100CA80001D1012300E00023002B55D13B69002B23
:100CB80015D03B699B6803F00303012B0CD13B69FA
:100CC8001B6803F00103012B06D1012305E000BFD7
:100CD80000F0FF83000300500023002B3CD13B6849
:100CE8001B68102B1DD17B681B68B3F1A04F18D16E
:100CF8007B6E9B6843F400027B6E9A60264B1B68F0
:100D0800264AA2FB03239A0C13469B0013445B005C
:100D1800FB6002E0FB68013BFB60FB68002BF9D13C
:100D28002EE03B681B68112B0BD17B681B68B3F165
:100D3800A04F06D17B6E9B6843F080727B6E9A60F1
:100D48001EE03B681B68122B1AD17B6E9B6843F42C
:100D580080027B6E9A6013E07B685B6C43F0200234
:100D68007B685A64012387F86F300AE07B685B6C04
:100D780043F020027B685A64012387F86F3000E053
:100D880000BF7B68002283F8402097F86F30184630
:100D98007037BD4690BC70471801002083DE1B43A6
:100DA80080B584B000AF78600023FB607B681B6867
:100DB8009B6803F00303012B08D17B681B681B6841
:100DC80003F00103012B01D1012300E00023002BD4
:100DD8003CD17B681B689A681F4B1340002B0DD0D1
:100DE8007B685B6C43F010027B685A647B689B6C81
:100DF80043F001027B689A64012328E07B681B6842
:100E08007A681268926842F001029A60FFF732FA33
:100E1800F86014E0FFF72EFA0246FB68D31A022B9B
:100E28000DD97B685B6C43F010027B685A647B6861
:100E38009B6C43F001027B689A64012307E07B689E
:100E48001B681B6803F00103012BE3D1002318463C
:100E58001037BD4680BD00BF3F00008080B584B01C
:100E680000AF78600023FB607B681B689B6803F019
:100E78000303012B08D17B681B681B6803F001037F
:100E8800012B01D1012300E00023002B40D07B6817
:100E98001B689B6803F00D03012B0FD17B681B684F
:100EA8007A681268926842F002029A607B681B684E
:100EB80003221A60FFF7DEF9F86022E07B685B6CBA
:100EC80043F010027B685A647B689B6C43F0010214
:100ED8007B689A6401231CE0FFF7CCF90246FB68A3
:100EE800D31A022B0DD97B685B6C43F010027B6828
:100EF8005A647B689B6C43F001027B689A64012307
:100F080007E07B681B689B6803F00103012BE3D0B3
:100F1800002318461037BD4680BD000080B485B058
:100F280000AF78607B6803F00703FB600C4BDB685D
:100F3800BB60BA684FF6FF031340BB60FB681A0238
:100F4800BB68134343F0BF6343F40033BB60044AF8
:100F5800BB68D36000BF1437BD465DF8047B70479B
:100F680000ED00E080B400AF044BDB681B0A03F01F
:100F780007031846BD465DF8047B704700ED00E0A6
:100F880080B483B000AF0346FB71094997F9073075
:100F98005B09FA7902F01F02012000FA02F241F817
:100FA800232000BF0C37BD465DF8047B704700BFA7
:100FB80000E100E080B483B000AF03463960FB7104
:100FC80097F90730002B0BDA0D49FB7903F00F0373
:100FD800043B3A68D2B21201D2B20B441A7609E045
:100FE800084997F907303A68D2B21201D2B20B44D5
:100FF80083F8002300BF0C37BD465DF8047B7047BB
:1010080000ED00E000E100E080B489B000AFF860D6
:10101800B9607A60FB6803F00703FB61FB69C3F101
:101028000703042B28BF0423BB61FB690433062B89
:1010380002D9FB69033B00E000237B610122BB6905
:1010480002FA03F35A1EBB681A407B699A400121D1
:101058007B6901FA03F3591E7B680B40134318465A
:101068002437BD465DF8047B7047000080B582B028
:1010780000AF78607B68013BB3F1807F01D3012327
:101088000FE00A4A7B68013B53600F214FF0FF30A5
:10109800FFF790FF054B00229A60044B07221A6065
:1010A800002318460837BD4680BD00BF10E000E0A9
:1010B80080B582B000AF78607868FFF72FFF00BF77
:1010C8000837BD4680BD80B586B000AF0346B9601D
:1010D8007A60FB7300237B61FFF744FF78617A68CD
:1010E800B9687869FFF790FF024697F90F30114603
:1010F8001846FFF75FFF00BF1837BD4680BD80B5B3
:1011080082B000AF0346FB7197F907301846FFF726
:1011180037FF00BF0837BD4680BD80B582B000AF3D
:1011280078607868FFF7A2FF034618460837BD467F
:1011380080BD000080B483B000AF78607B68042B6A
:1011480006D1094A084B1B6843F00403136005E005
:10115800054A054B1B6823F00403136000BF0C37D6
:10116800BD465DF8047B704710E000E080B500AF35
:1011780000F002F800BF80BD80B400AF00BFBD46DC
:101188005DF8047B7047000080B487B000AF7860DA
:10119800396000237B610023FB6000233B614EE143
:1011A8003B681A6801217B6901FA03F31340FB606D
:1011B800FB68002B00F040813B685B68022B03D082
:1011C8003B685B68122B23D17B69DA087B6808329D
:1011D80053F822303B617B6903F007039B000F2221
:1011E80002FA03F3DB433A6913403B613B681A692F
:1011F8007B6903F007039B0002FA03F33A69134380
:101208003B617B69DA087B680832396943F8221048
:101218007B681B683B617B695B00032202FA03F36E
:10122800DB433A6913403B613B685B6803F00302A8
:101238007B695B0002FA03F33A6913433B617B68FD
:101248003A691A603B685B68012B0BD03B685B68A6
:10125800022B07D03B685B68112B03D03B685B68A7
:10126800122B30D17B689B683B617B695B00032252
:1012780002FA03F3DB433A6913403B613B68DA68DF
:101288007B695B0002FA03F33A6913433B617B68AD
:101298003A699A607B685B683B6101227B6902FA64
:1012A80003F3DB433A6913403B613B685B681B0906
:1012B80003F001027B6902FA03F33A6913433B61C5
:1012C8007B683A695A607B68DB683B617B695B00D5
:1012D800032202FA03F3DB433A6913403B613B689C
:1012E8009A687B695B0002FA03F33A6913433B612E
:1012F8007B683A69DA603B685B6803F08053002BCF
:1013080000F09A80554A554B9B6943F0010393615D
:10131800524B9B6903F00103BB60BB68504A7B6971
:101328009B08023352F823303B617B6903F00303C7
:101338009B000F2202FA03F3DB433A6913403B6137
:101348007B68B3F1904F13D07B68464A93420DD027
:101358007B68454A934207D07B68444A934201D14F
:10136800032306E0052304E0022302E0012300E052
:1013780000237A6902F00302920093403A6913430A
:101388003B6137497B699B0802333A6941F823205E
:10139800374B1B683B61FB68DB433A6913403B6191
:1013A8003B685B6803F48033002B03D03A69FB6821
:1013B80013433B612E4A3B6913602D4B5B683B61CD
:1013C800FB68DB433A6913403B613B685B6803F4A5
:1013D8000033002B03D03A69FB6813433B61244A6E
:1013E8003B695360224B9B683B61FB68DB433A696E
:1013F80013403B613B685B6803F48013002B03D008
:101408003A69FB6813433B61194A3B699360184B7F
:10141800DB683B61FB68DB433A6913403B613B682F
:101428005B6803F40013002B03D03A69FB6813438D
:101438003B610F4A3B69D3607B6901337B613B6841
:101448001A687B6922FA03F3002B7FF4A9AE00BF68
:101458001C37BD465DF8047B704700BF0010024092
:10146800000001400004004800080048000C004843
:101478000004014080B483B000AF78600B467B80E5
:1014880013467B707B78002B03D07A887B689A613F
:1014980002E07A887B689A6200BF0C37BD465DF827
:1014A800047B704780B483B000AF78600B467B80C4
:1014B8007B685A697B885A407B685A6100BF0C3741
:1014C800BD465DF8047B704780B584B000AF786096
:1014D8000023FB600023BB607B68002B01D1012344
:1014E800CEE07B6893F87133DBB2002B06D17B68C2
:1014F800002283F87023786804F01CFE7B680322BE
:1015080083F871230023FB6040E07968FA6813468A
:10151800DB009B1A9B000B44293301221A70FB68DD
:10152800D8B27968FA681346DB009B1A9B000B4413
:10153800283302461A707968FA681346DB009B1A4A
:101548009B000B442B3300221A707968FA68134603
:10155800DB009B1A9B000B44343300221A60796825
:10156800FA681346DB009B1A9B000B4438330022B1
:101578001A607968FA681346DB009B1A9B000B44D3
:101588003C3300221A60FB680133FB607B685A68B1
:10159800FB689A42B9D80023FB6046E07968FA688C
:1015A8001346DB009B1A9B000B4403F2CD13002269
:1015B8001A70FB68D8B27968FA681346DB009B1A80
:1015C8009B000B4403F5E67302461A707968FA68C3
:1015D8001346DB009B1A9B000B4403F2CF13002237
:1015E8001A707968FA681346DB009B1A9B000B4453
:1015F80003F5EC7300221A607968FA681346DB0079
:101608009B1A9B000B4403F5EE7300221A6079685D
:10161800FA681346DB009B1A9B000B4403F5F07332
:1016280000221A60FB680133FB607B685A68FB681C
:101638009A42B3D87B681B680122A3F840207B68D4
:101648001B680022A3F840207B681B680022A3F8CF
:1016580044207B681B680022A3F850204FF43F43C6
:10166800BB607B681B68BA6892B2A3F840207B68AD
:10167800002283F824207B68012283F87123002349
:1016880018461037BD4680BD80B582B000AF78607F
:101698000121786805F08AF8002318460837BD4606
:1016A80080BD000090B589B000AF78600023FB834F
:1016B8000023BB81F8E2FB899BB2DBB203F00F0386
:1016C800FB76FB7E002B40F02181FB899BB203F067
:1016D8001003002B4BD17B681A687B681B681B883A
:1016E8009BB223F4E14323F070039BB213807B6821
:1016F80028337B617B681B68B3F850309BB21A466D
:101708007B691B78DB0013441A467B681B6813440B
:1017180003F202431B88C3F309027B699A617B6960
:101728001A697B699B691A447B691A610021786888
:1017380004F053FD7B6893F82430DBB2002B00F0F3
:10174800B3827B695B69002B40F0AE827B681B68C3
:101758007A6892F82420D2B262F07F02D2B292B2B2
:10176800A3F84C207B68002283F824209CE27B6845
:1017780003F5E6737B617B681B681B889BB2BB81A2
:10178800BB899BB203F40063002B2FD07B681B68D6
:10179800B3F850309BB21A467B691B78DB001344C0
:1017A8001A467B681B68134403F206431B88C3F37D
:1017B80009027B699A617B6818687B6803F55D712B
:1017C8007B699A887B699B699BB201F0E9FC7B681D
:1017D8001A687B681B681B8899B240F68F730B40A8
:1017E8009BB21380786804F0CBFC5DE2BB899BB2A6
:1017F8001BB2002B80F258827B681A687B681B68D2
:101808001B8899B240F68F730B409BB213807B689C
:101818001B68B3F850309BB21A467B691B78DB0013
:1018280013441A467B681B68134403F206431B885B
:10183800C3F309027B699A617B699B69002B11D00C
:101848007B6818687B6919697B699A887B699B69D9
:101858009BB201F0A5FC7B691A697B699B691A44F4
:101868007B691A610021786804F09CFC7B681B681E
:10187800B3F850309BB21A467B681B68134403F2D6
:1018880006433B617B69DB683E2B17D97B69DB68C4
:101898005B09BB837B69DB6803F01F03002B02D164
:1018A800BB8B013BBB83BB8B9B029BB26FEA434361
:1018B8006FEA53439AB23B691A8011E07B69DB688F
:1018C8005B08BB837B69DB6803F00103002B02D054
:1018D800BB8B0133BB83BB8B9B029AB23B691A80DB
:1018E8007B681B681B889BB223F4804323F070033A
:1018F8009CB284F480539CB284F400539CB27B68FD
:101908001A68984B23439BB21380CDE17B681B6810
:101918001A46FB7E9B0013441B889BB2BB81BB8984
:101928009BB21BB2002B80F2CF807B681B681A46E3
:10193800FB7E9B001A447B681B681946FB7E9B0054
:101948000B441B8899B240F68F730B409BB21380EF
:10195800FA7E1346DB009B1A9B0003F5E4737A6852
:10196800134404337B617B699B7A002B20D17B680D
:101978001B68B3F850309BB21A467B691B78DB00B2
:1019880013441A467B681B68134403F206431B88FA
:10199800C3F30903FB83FB8B002B70D07B681868AB
:1019A8007B6919697B699A88FB8B01F0F9FB66E012
:1019B8007B681B681A467B691B789B0013441B884D
:1019C8009BB203F48043B3F5804F20D17B681B683A
:1019D800B3F850309BB21A467B691B78DB0013447E
:1019E8001A467B681B68134403F202431B88C3F33F
:1019F8000903FB83FB8B002B29D07B6818687B6964
:101A080019697B69DA88FB8B01F0CAFB1FE07B68E8
:101A18001B68B3F850309BB21A467B691B78DB0011
:101A280013441A467B681B68134403F206431B8859
:101A3800C3F30903FB83FB8B002B08D07B68186872
:101A48007B6919697B691A89FB8B01F0A9FB7B68A3
:101A58001B681A467B691B789B001A447B681B68C5
:101A680019467B691B789B000B441B8899B240F68A
:101A78000F730B4099B23C4B0B439BB213807B69AD
:101A88009A69FB8B1A447B699A617B691A69FB8B9B
:101A98001A447B691A617B695B69002B04D0FA8B55
:101AA8007B69DB689A4206D27B691B78194678689D
:101AB80004F078FB08E07B6919787B691A697B690F
:101AC8005B69786800F078FFBB899BB203F08003FC
:101AD800002B00F0E980FA7E1346DB009B1A9B007E
:101AE80028337A6813447B617B681B681A46FB7E3F
:101AF8009B001A447B681B681946FB7E9B000B44BD
:101B08001B889BB223F4E14323F070039BB213803C
:101B18007B699B7A002B29D17B681B68B3F850300E
:101B28009BB21A467B691B78DB0013441A467B6814
:101B38001B68134403F202431B88C3F309027B6941
:101B48009A617B699B69002B7ED07B6818687B69EA
:101B580019697B699A887B699B699BB201F0E6FAEF
:101B680072E000BF8080FFFFC080FFFF7B681B68BA
:101B78001A467B691B789B0013441B889BB203F0B1
:101B88004003402B24D17B681B68B3F850309BB2CC
:101B98001A467B691B78DB0013441A467B681B686E
:101BA800134403F202431B88C3F309027B699A6159
:101BB8007B699B69002B2FD07B6818687B69196942
:101BC8007B69DA887B699B699BB201F0AFFA23E0F5
:101BD8007B681B68B3F850309BB21A467B691B7848
:101BE800DB0013441A467B681B68134403F2064360
:101BF8001B88C3F309027B699A617B699B69002B87
:101C08000AD07B6818687B6919697B691A897B69BE
:101C18009B699BB201F08AFA7B681B681A467B694C
:101C28001B789B001A447B681B6819467B691B78E4
:101C38009B000B441B8899B240F60F730B4099B276
:101C4800214B0B439BB213807B681B68B3F8503061
:101C58009BB21A467B691B78DB0013441A467B68E3
:101C68001B68134403F202431B88C3F309027B6910
:101C78009A617B691A697B699B691A447B691A6155
:101C88007B695B69002B06D17B691B7819467868EC
:101C980004F0A3FA08E07B6919787B691A697B6903
:101CA8005B69786800F09CFF7B681B68B3F8443078
:101CB8009BB21A46FA811BB2002BFFF6FCAC00233C
:101CC80018462437BD4690BD80C0FFFF80B582B05E
:101CD80000AF78607B681B68B3F844309BB203F4AC
:101CE8000043B3F5004F02D17868FFF7DBFC7B684F
:101CF8001B68B3F844309BB203F48063B3F5806F7C
:101D08000CD17B681B684FF6FF32A3F84420786833
:101D180004F08BFA0021786800F0A7F87B681B684C
:101D2800B3F844309BB203F48043B3F5804F05D138
:101D38007B681B684BF6FF72A3F844207B681B681E
:101D4800B3F844309BB203F40053B3F5005F05D1F8
:101D58007B681B684DF6FF72A3F844207B681B68FC
:101D6800B3F844309BB203F48053B3F5805F20D1BD
:101D78007B681B687A681268B2F8402092B222F039
:101D8800040292B2A3F840207B681B687A68126844
:101D9800B2F8402092B222F0080292B2A3F8402092
:101DA800786804F07FFA7B681B684EF6FF72A3F828
:101DB80044207B681B68B3F844309BB203F400638B
:101DC800B3F5006F2AD17B681B687A681268B2F88D
:101DD800402092B242F0080292B2A3F840207B68F9
:101DE8001B684FF2FF72A3F844207B681B687A686F
:101DF8001268B2F8402092B242F0040292B2A3F8FC
:101E080040207B681B68B3F844309BB203F48053CE
:101E1800B3F5805F02D0786804F02AFA7B681B6803
:101E2800B3F844309BB203F40073B3F5007F08D1D4
:101E38007B681B684FF6FF52A3F84420786804F0CB
:101E4800E6F97B681B68B3F844309BB203F48073EF
:101E5800B3F5807F05D17B681B684FF6FF62A3F856
:101E6800442000BF0837BD4680BD80B483B000AFB2
:101E780078600B46FB707B6893F87033012B01D1B7
:101E8800022315E07B68012283F87023FB78002B7E
:101E980005D17B681B688022A3F84C2003E07B688F
:101EA800FA7883F824207B68002283F870230023C3
:101EB80018460C37BD465DF8047B704790B486B071
:101EC80000AF7860084611461A460346FB700B4679
:101ED8003B801346BB7000237B7497F90330002BBB
:101EE8000BDAFB7803F07F021346DB009B1A9B009A
:101EF80028337A6813447B610CE0FB7803F07F0297
:101F08001346DB009B1A9B0003F5E4737A681344BD
:101F180004337B61FB7803F07F03DAB27B691A70C4
:101F280097F90330DBB2DB09DBB21A467B695A70DA
:101F38003A887B69DA607B69BA78DA707B6893F8EB
:101F48007033012B01D1022323E37B68012283F83C
:101F580070237B69DB78032B6FD801A252F823F03A
:101F6800791F00080F200008AD1F0008DB1F0008BC
:101F78007B681B681A467B691B789B001A447B6840
:101F88001B6819467B691B789B000B441B889BB216
:101F980023F4EC4323F070039BB243F400739BB229
:101FA80013804BE07B681B681A467B691B789B0093
:101FB8001A447B681B6819467B691B789B000B4495
:101FC8001B889BB223F4EC4323F070039BB213806D
:101FD80034E07B681B681A467B691B789B001A44AF
:101FE8007B681B6819467B691B789B000B441B8820
:101FF8009BB223F4EC4323F070039BB243F4C06319
:102008009BB213801AE07B681B681A467B691B78B1
:102018009B001A447B681B6819467B691B789B00E8
:102028000B441B889BB223F4EC4323F070039BB250
:1020380043F480639BB2138000E000BF7B681B6899
:102048001A467B691B789B001A447B681B681946F3
:102058007B691B789B000B441B8899B240F60F7371
:102068000B4099B27B691B789BB20B4399B2814BA9
:102078000B439BB213807B699B7A002B40F0008155
:102088007B695B78002B59D07B681B68B3F85030AC
:102098009BB21A467B691B78DB0013441A467B689F
:1020A8001B68134403F580631A467B699B885B08A9
:1020B8009BB25B009BB213807B681B681A467B69E6
:1020C8001B789B0013441B889BB203F04003002B32
:1020D80017D07B681B681A467B691B789B001A44DB
:1020E8007B681B6819467B691B789B000B441B881F
:1020F80099B240F60F730B4099B25F4B0B439BB2FA
:1021080013807B681B681A467B691B789B00134405
:102118001B889BB223F4E04323F040039CB284F075
:1021280020039CB27B681B681A467B691B789B005E
:102138001A44504B23439BB2138025E27B681B68EB
:10214800B3F850309BB21A467B691B78DB00134406
:102158001A467B681B68134403F204431A467B69DA
:102168009B885B089BB25B009BB213807B681B68F3
:10217800B3F850309BB21A467B691B78DB001344D6
:102188001A467B681B68134403F20643FB607B69AD
:10219800DB683E2B17D97B69DB685B097B827B692F
:1021A800DB6803F01F03002B02D17B8A013B7B8293
:1021B8007B8A9B029BB26FEA43436FEA53439AB20E
:1021C800FB681A8011E07B69DB685B087B827B69AE
:1021D800DB6803F00103002B02D07B8A01337B828A
:1021E8007B8A9B029AB2FB681A807B681B681A4636
:1021F8007B691B789B0013441B889BB203F48043C4
:10220800002B17D07B681B681A467B691B789B00DC
:102218001A447B681B6819467B691B789B000B4432
:102228001B8899B240F60F730B4099B2134B0B43BE
:102238009BB213807B681B681A467B691B789B00DE
:1022480013441B889BB223F4804323F070039CB291
:1022580084F480539CB284F400539CB27B681B685E
:102268001A467B691B789B001A44024B23439BB296
:10227800138089E18080FFFFC080FFFF80C0FFFFDF
:102288007B681B681A467B691B789B001A447B682D
:102298001B6819467B691B789B000B441B8899B205
:1022A80040F60F630B4099B2694B0B439BB2138006
:1022B8007B681B68B3F850309BB21A467B691B7861
:1022C800DB0013441A467B681B68134403F58063DC
:1022D8001A467B69DB885B089BB25B009BB2138064
:1022E8007B681B68B3F850309BB21A467B691B7831
:1022F800DB0013441A467B681B68134403F204434B
:102308001A467B691B895B089BB25B009BB21380F2
:102318007B695B78002B40F0A3807B681B681A46BA
:102328007B691B789B0013441B889BB203F4804392
:10233800002B17D07B681B681A467B691B789B00AB
:102348001A447B681B6819467B691B789B000B4401
:102358001B8899B240F60F730B4099B23D4B0B4363
:102368009BB213807B681B681A467B691B789B00AD
:1023780013441B889BB203F04003002B17D07B68E3
:102388001B681A467B691B789B001A447B681B688C
:1023980019467B691B789B000B441B8899B240F651
:1023A8000F730B4099B22C4B0B439BB213807B6885
:1023B8001B681A467B691B789B001A447B681B685C
:1023C80019467B691B789B000B441B8899B240F621
:1023D8000F730B4099B2204B0B439BB213807B6861
:1023E8001B681A467B691B789B0013441B889BB2A9
:1023F80023F4804323F070039CB284F480539CB28E
:1024080084F400539CB27B681B681A467B691B786E
:102418009B001A44114B23439BB213807B681B68B3
:102428001A467B691B789B0013441B889BB223F4D4
:10243800E04323F040039CB27B681B681A467B6923
:102448001B789B001A44054B23439BB213809BE0E7
:102458008081FFFF80C0FFFFC080FFFF8080FFFFFB
:102468007B681B681A467B691B789B0013441B8892
:102478009BB203F48043002B17D07B681B681A4675
:102488007B691B789B001A447B681B6819467B692B
:102498001B789B000B441B8899B240F60F730B40C6
:1024A80099B23E4B0B439BB213807B681B681A465C
:1024B8007B691B789B0013441B889BB203F0400385
:1024C800002B17D07B681B681A467B691B789B001A
:1024D8001A447B681B6819467B691B789B000B4470
:1024E8001B8899B240F60F730B4099B22C4B0B43E3
:1024F8009BB213807B681B681A467B691B789B001C
:102508001A447B681B6819467B691B789B000B443F
:102518001B8899B240F60F730B4099B21F4B0B43BF
:102528009BB213807B681B681A467B691B789B00EB
:1025380013441B889BB223F4E04323F040039CB26E
:102548007B681B681A467B691B789B001A44154BED
:1025580023439BB213807B681B681A467B691B78F0
:102568009B0013441B889BB223F4804323F0700321
:102578009CB27B681B681A467B691B789B001A44CF
:10258800084B23439BB213807B68002283F8702397
:102598007B7C18461837BD4690BC704780C0FFFF4B
:1025A800C080FFFF8080FFFF90B484B000AF7860E8
:1025B8000B46FB7097F90330002B0BDAFB7803F01E
:1025C8007F021346DB009B1A9B0028337A6813446A
:1025D800FB600CE0FB7803F07F021346DB009B1ADC
:1025E8009B0003F5E4737A6813440433FB60FB78BB
:1025F80003F07F03DAB2FB681A7097F90330DBB295
:10260800DB09DBB21A46FB685A707B6893F87033B3
:10261800012B01D10223C4E17B68012283F87023D6
:10262800FB689B7A002B40F08280FB685B78002B6C
:102638003ED07B681B681A46FB681B789B001344D6
:102648001B889BB203F04003002B17D07B681B68E4
:102658001A46FB681B789B001A447B681B6819465E
:10266800FB681B789B000B441B8899B240F60F73DC
:102678000B4099B27B4B0B439BB213807B681B6862
:102688001A46FB681B789B0013441B889BB223F4F3
:10269800E04323F040039CB27B681B681A46FB6842
:1026A8001B789B001A44704B23439BB2138073E141
:1026B8007B681B681A46FB681B789B0013441B88C1
:1026C8009BB203F48043002B17D07B681B681A4623
:1026D800FB681B789B001A447B681B681946FB68DB
:1026E8001B789B000B441B8899B240F60F730B4074
:1026F80099B25E4B0B439BB213807B681B681A46EA
:10270800FB681B789B0013441B889BB223F480430F
:1027180023F070039CB27B681B681A46FB681B7821
:102728009B001A44504B23439BB2138034E1FB684F
:102738005B78002B40F09C807B681B681A46FB681E
:102748001B789B0013441B889BB203F48043002B27
:1027580017D07B681B681A46FB681B789B001A44D5
:102768007B681B681946FB681B789B000B441B8819
:1027780099B240F60F730B4099B23C4B0B439BB296
:1027880013807B681B681A46FB681B789B00134400
:102798001B889BB203F04003002B17D07B681B6893
:1027A8001A46FB681B789B001A447B681B6819460D
:1027B800FB681B789B000B441B8899B240F60F738B
:1027C8000B4099B2274B0B439BB213807B681B6865
:1027D8001A46FB681B789B001A447B681B681946DD
:1027E800FB681B789B000B441B8899B240F60F735B
:1027F8000B4099B21B4B0B439BB213807B681B6841
:102808001A46FB681B789B0013441B889BB223F471
:10281800804323F070039CB27B681B681A46FB68F0
:102828001B789B001A44104B23439BB213807B6890
:102838001B681A46FB681B789B0013441B889BB2D5
:1028480023F4E04323F040039CB27B681B681A46DC
:10285800FB681B789B001A44034B23439BB21380ED
:102868009AE000BFC080FFFF8080FFFF80C0FFFFAD
:102878007B681B681A46FB681B789B0013441B88FF
:102888009BB203F48043002B17D07B681B681A4661
:10289800FB681B789B001A447B681B681946FB6819
:1028A8001B789B000B441B8899B240F60F730B40B2
:1028B80099B23E4B0B439BB213807B681B681A4648
:1028C800FB681B789B0013441B889BB203F04003F2
:1028D800002B17D07B681B681A46FB681B789B0087
:1028E8001A447B681B681946FB681B789B000B44DD
:1028F8001B8899B240F60F730B4099B22C4B0B43CF
:102908009BB213807B681B681A46FB681B789B0088
:102918001A447B681B681946FB681B789B000B44AC
:102928001B8899B240F60F730B4099B21F4B0B43AB
:102938009BB213807B681B681A46FB681B789B0058
:1029480013441B889BB223F4E04323F040039CB25A
:102958007B681B681A46FB681B789B001A44154B5A
:1029680023439BB213807B681B681A46FB681B785D
:102978009B0013441B889BB223F4804323F070030D
:102988009CB27B681B681A46FB681B789B001A443C
:10299800084B23439BB213807B68002283F8702383
:1029A800002318461037BD4690BC704780C0FFFF13
:1029B800C080FFFF8080FFFF90B488B000AFF86050
:1029C8007A603B600B46FB72FB7A03F07F0213468A
:1029D800DB009B1A9B0003F5E473FA681344043385
:1029E800BB61BB697A681A61BB693A685A61BB699D
:1029F80000229A61BB6900225A70FB7A03F07F03B8
:102A0800DAB2BB691A70BB695A69BB69DB689A425A
:102A180009D9BB69DB683B60BB695A693B68D21A54
:102A2800BB695A6105E0BB695B693B60BB69002211
:102A38005A61BB699B7A002B3AD1FB681B68B3F8D3
:102A480050309BB21A46BB691B78DB0013441A4608
:102A5800FB681B68134403F206437B613B683E2B0B
:102A680015D93B685B09FB833B6803F01F03002B08
:102A780002D1FB8B013BFB83FB8B9B029BB26FEA72
:102A880043436FEA53439AB27B691A8066E03B6816
:102A98005B08FB833B6803F00103002B02D0FB8B30
:102AA8000133FB83FB8B9B029AB27B691A8055E04A
:102AB800BB695B78002B3AD1FB681B68B3F85030D0
:102AC8009BB21A46BB691B78DB0013441A46FB68A5
:102AD8001B68134403F206433B613B683E2B15D940
:102AE8003B685B09BB833B6803F01F03002B02D1E3
:102AF800BB8B013BBB83BB8B9B029BB26FEA4343FF
:102B08006FEA53439AB23B691A8027E03B685B0837
:102B1800BB833B6803F00103002B02D0BB8B01335E
:102B2800BB83BB8B9B029AB23B691A8016E0BB69D8
:102B38005B78012B12D1FB681B68B3F850309BB24D
:102B48001A46BB691B78DB0013441A46FB681B68EE
:102B5800134403F206433A6892B21A80FB681B6872
:102B68001A46BB691B789B0013441B889BB223F44D
:102B7800804323F070039CB284F480539CB284F4A5
:102B880000539CB2FB681B681A46BB691B789B0004
:102B98001A44054B23439BB2138000231846203761
:102BA800BD4690BC704700BF8080FFFF80B483B0F3
:102BB80000AF78600B46FB70FB7803F07F02796802
:102BC8001346DB009B1A9B000B4403F5F2731B684A
:102BD8009BB218460C37BD465DF8047B7047000071
:102BE80090B587B000AFF8607A603B600B46FB7227
:102BF8000023FB82FB7A03F07F021346DB009B1A5B
:102C08009B002833FA6813443B613B697A681A6170
:102C18003B693A685A613B6900229A613B69012223
:102C28005A70FB7A03F07F03DAB23B691A703B698A
:102C38005A693B69DB689A4209D93B69DB683B60A2
:102C48003B695A693B68D21A3B695A6105E03B699E
:102C58005B693B603B6900225A613B699B7A002BA8
:102C68001DD1FB6818683B6919693B699A883B68FC
:102C78009BB200F05BFAFB681B68B3F850309BB25C
:102C88001A463B691B78DB0013441A46FB681B682D
:102C9800134403F202433A6892B21A8055E0FB6883
:102CA8001B681A463B691B789B0013441B889BB220
:102CB80003F04003402B03D13B691B89FB8202E0F0
:102CC8003B69DB88FB82FB6818683B6919693B68CC
:102CD8009BB2FA8A00F02AFA3B695B78002B18D17C
:102CE800FB681B681A463B691B789B001A44FB6803
:102CF8001B6819463B691B789B000B441B8899B2DB
:102D080040F60F730B4099B2224B0B439BB21380D2
:102D18001BE03B695B78012B17D1FB681B681A46DF
:102D28003B691B789B001A44FB681B6819463B6982
:102D38001B789B000B441B8899B240F60F730B401D
:102D480099B2154B0B439BB21380FB681B681A465C
:102D58003B691B789B0013441B889BB223F4E04318
:102D680023F040039CB284F010039CB284F020034B
:102D78009CB2FB681B681A463B691B789B001A4487
:102D8800064B23439BB21380002318461C37BD46CD
:102D980090BD00BFC080FFFF80C0FFFF8080FFFFA5
:102DA80090B484B000AF78600B46FB707B6893F8F2
:102DB8007033012B01D1022392E07B68012283F852
:102DC800702397F90330002B0BDAFB7803F07F02AE
:102DD8001346DB009B1A9B0028337A681344FB6078
:102DE8000AE0FA781346DB009B1A9B0003F5E473AC
:102DF8007A6813440433FB60FB6801229A70FB78FD
:102E080003F07F03DAB2FB681A7097F90330DBB27C
:102E1800DB09DBB21A46FB685A70FB681B78002B8B
:102E28001CD17B681B681A46FB681B789B001344FF
:102E38001B889BB24BF6BF741C4084F4805484F00A
:102E480010047B681B681A46FB681B789B001A44B1
:102E5800A1B2264B0B439BB213803CE0FB685B7826
:102E6800002B1CD07B681B681A46FB681B789B00EC
:102E780013441B889BB223F4E04323F040039CB225
:102E880084F010039CB27B681B681A46FB681B78A9
:102E98009B001A44154B23439BB213801BE07B68AD
:102EA8001B681A46FB681B789B0013441B889BB25F
:102EB80023F4804323F070039CB284F480539CB2C3
:102EC8007B681B681A46FB681B789B001A44074BF3
:102ED80023439BB213807B68002283F8702300236E
:102EE80018461037BD4690BC704700BF8080FFFF72
:102EF80090B484B000AF78600B46FB7097F903304C
:102F0800002B0BDAFB7803F07F021346DB009B1AD9
:102F18009B0028337A681344FB600AE0FA7813466A
:102F2800DB009B1A9B0003F5E4737A6813440433AF
:102F3800FB60FB6800229A70FB7803F07F03DAB22B
:102F4800FB681A7097F90330DBB2DB09DBB21A466B
:102F5800FB685A707B6893F87033012B01D1022308
:102F680095E07B68012283F87023FB685B78002B6F
:102F780044D07B681B681A46FB681B789B00134487
:102F88001B889BB203F04003002B17D07B681B689B
:102F98001A46FB681B789B001A447B681B68194615
:102FA800FB681B789B000B441B8899B240F60F7393
:102FB8000B4099B2384B0B439BB213807B681B685C
:102FC8001A46FB681B789B0013441B889BB223F4AA
:102FD800E04323F040039CB284F010039CB284F0D9
:102FE80020039CB27B681B681A46FB681B789B0011
:102FF8001A442A4B23439BB2138043E07B681B6827
:103008001A46FB681B789B0013441B889BB203F489
:103018008043002B17D07B681B681A46FB681B7817
:103028009B001A447B681B681946FB681B789B0049
:103038000B441B8899B240F60F730B4099B2184B9A
:103048000B439BB213807B681B681A46FB681B788E
:103058009B0013441B889BB223F4804323F0700326
:103068009CB284F480539CB284F400539CB27B6875
:103078001B681A46FB681B789B001A44074B2343BE
:103088009BB213807B68002283F8702300231846C4
:103098001037BD4690BC7047C080FFFF8080FFFF9F
:1030A80080C0FFFF80B487B000AFF8607B600B463C
:1030B8007B8113463B817B8903F080039BB2002B05
:1030C8000BD07B8903F07F021346DB009B1A9B0021
:1030D8002833FA6813447B610AE07A891346DB00D7
:1030E8009B1A9B0003F5E473FA68134404337B616D
:1030F8003B89002B07D17B6900229A727B689AB2C0
:103108007B699A800BE07B6901229A727B689AB28C
:103118007B69DA807B681B0C9AB27B691A81002371
:1031280018461C37BD465DF8047B704780B489B0EB
:1031380000AFF860B96011461A460B46FB8013468B
:10314800BB80BB8801335B087B61FA88FB6813444A
:1031580003F58063BB617B69FB6118E0BB681B7882
:103168007B82BB680133BB60BB681B789BB21B02C8
:103178009AB27B8A13433B82BB699A1CBA613A8A2A
:103188001A80BB680133BB60FB69013BFB61FB69CB
:10319800002BE3D100BF2437BD465DF8047B7047A0
:1031A80080B489B000AFF860B96011461A460B4682
:1031B800FB801346BB80BB885B089BB27B61FA88A7
:1031C800FB68134403F58063BB617B69FB6114E012
:1031D800BB699A1CBA611B883B61BB685A1CBA6000
:1031E8003A69D2B21A70BB685A1CBA603A69120AB4
:1031F800D2B21A70FB69013BFB61FB69002BE7D176
:10320800BB8803F001039BB2002B0AD0BB699A1C50
:10321800BA611B883B61BB685A1CBA603A69D2B272
:103228001A7000BF2437BD465DF8047B7047000064
:1032380080B5ADF5007D00AF3B1D18600023C7F8D1
:10324800F8313B1D1B681B6803F00103002B00F0DD
:103258006E81B54B5B6803F00C03042B0CD0B24BAA
:103268005B6803F00C03082B5AD1AF4B5B6803F47F
:103278008033B3F5803F53D14FF40033C7F8F431AE
:10328800D7F8F43193FAA3F3C7F8F031D7F8F0314F
:10329800B3FA83F3DBB25B09DBB243F00103DBB2C1
:1032A800012B02D1A04B1B6815E04FF40033C7F87F
:1032B800EC31D7F8EC3193FAA3F3C7F8E8314FF4BF
:1032C8000033C7F8E431D7F8E43193FAA3F3C7F829
:1032D800E031954B5B6A4FF40032C7F8DC21D7F830
:1032E800DC2192FAA2F2C7F8D821D7F8D821B2FA8D
:1032F80082F252B242F0200252B2D2B202F01F025F
:10330800012101FA02F21340002B00F00F813B1D4E
:103318001B685B68002B40F00981012300F06BBE3D
:103328003B1D1B685B68B3F5803F06D17E4A7E4B28
:103338001B6843F48033136030E03B1D1B685B68F7
:10334800002B0CD1784A784B1B6823F48033136028
:10335800754A754B1B6823F4802313601EE03B1DE0
:103368001B685B68B3F5A02F0CD16F4A6E4B1B68C6
:1033780043F4802313606C4A6B4B1B6843F480331F
:1033880013600BE0684A684B1B6823F480331360B2
:10339800654A654B1B6823F4802313606249624BBE
:1033A800DB6A23F00F023B1D1B689B681343CB624B
:1033B8003B1D1B685B68002B5AD0FCF75BFFC7F806
:1033C800F8010AE0FCF756FF0246D7F8F831D31A9D
:1033D800642B02D9032300F00EBE4FF40033C7F864
:1033E800D431D7F8D43193FAA3F3C7F8D031D7F84A
:1033F800D031B3FA83F3DBB25B09DBB243F00103EC
:10340800DBB2012B02D1484B1B6815E04FF40033A7
:10341800C7F8CC31D7F8CC3193FAA3F3C7F8C83141
:103428004FF40033C7F8C431D7F8C43193FAA3F383
:10343800C7F8C0313C4B5B6A4FF40032C7F8BC2177
:10344800D7F8BC2192FAA2F2C7F8B821D7F8B82168
:10345800B2FA82F252B242F0200252B2D2B202F072
:103468001F02012101FA02F21340002BAAD05EE0EC
:10347800FCF700FFC7F8F8010AE0FCF7FBFE02467C
:10348800D7F8F831D31A642B02D9032300F0B3BD5F
:103498004FF40033C7F8B431D7F8B43193FAA3F333
:1034A800C7F8B031D7F8B031B3FA83F3DBB25B09B0
:1034B800DBB243F00103DBB2012B02D11A4B1B68CC
:1034C80015E04FF40033C7F8AC31D7F8AC3193FAB4
:1034D800A3F3C7F8A8314FF40033C7F8A431D7F8DD
:1034E800A43193FAA3F3C7F8A0310F4B5B6A4FF4EA
:1034F8000032C7F89C21D7F89C2192FAA2F2C7F8AB
:103508009821D7F89821B2FA82F252B242F02002FA
:1035180052B2D2B202F01F02012101FA02F21340A4
:10352800002BAAD103E000BF0010024000BF3B1DE2
:103538001B681B6803F00203002B00F07081D04B5E
:103548005B6803F00C03002B0BD0CD4B5B6803F0DA
:103558000C03082B6DD1CA4B5B6803F48033002B36
:1035680067D10223C7F89431D7F8943193FAA3F3BB
:10357800C7F89031D7F89031B3FA83F3DBB25B091F
:10358800DBB243F00103DBB2012B02D1BC4B1B6859
:1035980013E00223C7F88C31D7F88C3193FAA3F3E0
:1035A800C7F888310223C7F88431D7F8843193FAF1
:1035B800A3F3C7F88031B24B5B6A0222C7F87C21BB
:1035C800D7F87C2192FAA2F2C7F87821D7F87821A7
:1035D800B2FA82F252B242F0200252B2D2B202F0F1
:1035E8001F02012101FA02F21340002B07D03B1DF4
:1035F8001B681B69012B02D0012300F0FCBCA0480A
:103608009F4B1B6823F0F8023B1D1B685969F82380
:10361800C7F87431D7F8743193FAA3F3C7F8703147
:10362800D7F87031B3FA83F301FA03F31343036055
:10363800F5E03B1D1B681B69002B00F0858001230A
:10364800C7F86C31D7F86C3193FAA3F3C7F868312F
:10365800D7F86831B3FA83F303F1845303F584137D
:103668009B001A4601231360FCF704FEC7F8F80113
:103678000AE0FCF7FFFD0246D7F8F831D31A022B0F
:1036880002D9032300F0B7BC0223C7F86431D7F886
:10369800643193FAA3F3C7F86031D7F86031B3FA0D
:1036A80083F3DBB25B09DBB243F00103DBB2012B2E
:1036B80002D1734B1B6813E00223C7F85C31D7F8BB
:1036C8005C3193FAA3F3C7F858310223C7F8543191
:1036D800D7F8543193FAA3F3C7F85031684B5B6AB3
:1036E8000222C7F84C21D7F84C2192FAA2F2C7F867
:1036F8004821D7F84821B2FA82F252B242F02002A9
:1037080052B2D2B202F01F02012101FA02F21340B2
:10371800002BAED05A485A4B1B6823F0F8023B1DC9
:103728001B685969F823C7F84431D7F8443193FA2C
:10373800A3F3C7F84031D7F84031B3FA83F301FA5D
:1037480003F3134303606AE00123C7F83C31D7F859
:103758003C3193FAA3F3C7F83831D7F83831B3FAC4
:1037680083F303F1845303F584139B001A46002363
:103778001360FCF77FFDC7F8F8010AE0FCF77AFD53
:103788000246D7F8F831D31A022B02D9032300F0E6
:1037980032BC0223C7F83431D7F8343193FAA3F393
:1037A800C7F83031D7F83031B3FA83F3DBB25B09AD
:1037B800DBB243F00103DBB2012B02D1304B1B68B3
:1037C80013E00223C7F82C31D7F82C3193FAA3F36E
:1037D800C7F828310223C7F82431D7F8243193FADF
:1037E800A3F3C7F82031264B5B6A0222C7F81C21D5
:1037F800D7F81C2192FAA2F2C7F81821D7F8182195
:10380800B2FA82F252B242F0200252B2D2B202F0BE
:103818001F02012101FA02F21340002BAED13B1D19
:103828001B681B6803F00803002B00F0D8803B1DC1
:103838001B689B69002B67D00123C7F81431D7F8A0
:10384800143193FAA3F3C7F81031D7F81031B3FA4B
:1038580083F31A460B4B13449B001A46012313604B
:10386800FCF708FDC7F8F8010EE0FCF703FD024677
:10387800D7F8F831D31A022B06D90323BBE300BFCC
:1038880000100240208190100223C7F80C31D7F8AD
:103898000C3193FAA3F3C7F808310223C7F80431AF
:1038A800D7F8043193FAA3F207F580731A6007F189
:1038B800FC0302221A6007F1FC031B6893FAA3F2C7
:1038C80007F1F8031A60A54B5A6A07F1F4030221BD
:1038D800196007F1F4031B6893FAA3F107F1F003E9
:1038E800196007F1F0031B68B3FA83F35BB243F086
:1038F80060035BB2DBB203F01F03012101FA03F39B
:103908001340002BB1D06AE007F1EC0301221A60E2
:1039180007F1EC031B6893FAA3F207F1E8031A60B6
:1039280007F1E8031B68B3FA83F31A468C4B134478
:103938009B001A4600231360FCF79CFCC7F8F801AB
:1039480009E0FCF797FC0246D7F8F831D31A022BA6
:1039580001D903234FE307F1E40302221A6007F1B8
:10396800E4031B6893FAA3F207F1E0031A6007F176
:10397800DC0302221A6007F1DC031B6893FAA3F246
:1039880007F1D8031A6007F1D40302221A6007F17D
:10399800D4031B6893FAA3F207F1D0031A606F4BA4
:1039A8005A6A07F1CC030221196007F1CC031B689E
:1039B80093FAA3F107F1C803196007F1C8031B685C
:1039C800B3FA83F35BB243F060035BB2DBB203F09C
:1039D8001F03012101FA03F31340002BB1D13B1D52
:1039E8001B681B6803F00403002B00F059810023B7
:1039F80087F8FF31594BDB6903F08053002B12D154
:103A0800564A564BDB6943F08053D361534BDB690D
:103A180003F0805207F10C031A6007F10C031B68CE
:103A2800012387F8FF314F4B1B6803F48073002B89
:103A38001AD14C4A4B4B1B6843F480731360FCF754
:103A480019FCC7F8F80109E0FCF714FC0246D7F89E
:103A5800F831D31A642B01D90323CCE2414B1B68FC
:103A680003F48073002BEFD03B1D1B68DB68012B30
:103A780006D13A4A394B1B6A43F0010313622FE01F
:103A88003B1D1B68DB68002B0CD1344A334B1B6A87
:103A980023F001031362314A304B1B6A23F00403FD
:103AA80013621DE03B1D1B68DB68052B0CD12B4AFC
:103AB8002A4B1B6A43F004031362284A274B1B6AEC
:103AC80043F0010313620BE0244A244B1B6A23F0E2
:103AD80001031362214A214B1B6A23F0040313627A
:103AE8003B1D1B68DB68002B6BD0FCF7C3FBC7F8DA
:103AF800F8010BE0FCF7BEFB0246D7F8F831D31A01
:103B080041F28832934201D9032374E207F1C403D6
:103B180002221A6007F1C4031B6893FAA3F207F1A3
:103B2800C0031A6007F1BC0302221A6007F1BC0344
:103B38001B6893FAA3F207F1B8031A6007F1B803F8
:103B48001B68B3FA83F3DBB25B09DBB243F0020311
:103B5800DBB2022B08D1014B1B6A13E000100240B4
:103B6800208190100070004007F1B40302221A600F
:103B780007F1B4031B6893FAA3F207F1B0031A60C4
:103B8800BB4B5B6A07F1AC020221116007F1AC0282
:103B9800126892FAA2F107F1A802116007F1A802CF
:103BA8001268B2FA82F252B242F0400252B2D2B273
:103BB80002F01F02012101FA02F21340002B99D0F2
:103BC80064E0FCF757FBC7F8F8010BE0FCF752FB81
:103BD8000246D7F8F831D31A41F28832934201D914
:103BE800032308E207F1A40302221A6007F1A403E1
:103BF8001B6893FAA3F207F1A0031A6007F19C036C
:103C080002221A6007F19C031B6893FAA3F207F1DA
:103C180098031A6007F198031B68B3FA83F3DBB2C1
:103C28005B09DBB243F00203DBB2022B02D1904BFB
:103C38001B6A0DE007F1940302221A6007F194034E
:103C48001B6893FAA3F207F190031A60884B5B6A2A
:103C580007F18C020221116007F18C02126892FAB6
:103C6800A2F107F18802116007F188021268B2FA1E
:103C780082F252B242F0400252B2D2B202F01F02B5
:103C8800012101FA02F21340002B9FD197F8FF316E
:103C9800012B05D1764A764BDB6923F08053D3613B
:103CA8003B1D1B68DB69002B00F0A481704B5B682F
:103CB80003F00C03082B00F09B813B1D1B68DB699C
:103CC800022B40F0138107F184034FF080721A60D1
:103CD80007F184031B6893FAA3F207F180031A60C3
:103CE80007F180031B68B3FA83F303F1845303F5E8
:103CF80084139B001A4600231360FCF7BBFAC7F82D
:103D0800F80109E0FCF7B6FA0246D7F8F831D31AF9
:103D1800022B01D903236EE107F17C034FF00072F7
:103D28001A6007F17C031B6893FAA3F207F1780382
:103D38001A6007F178031B68B3FA83F3DBB25B09F7
:103D4800DBB243F00103DBB2012B02D1484B1B6805
:103D58001BE007F174034FF000721A6007F1740357
:103D68001B6893FAA3F207F170031A6007F16C035A
:103D78004FF000721A6007F16C031B6893FAA3F204
:103D880007F168031A603A4B5B6A07F164024FF067
:103D98000071116007F16402126892FAA2F107F14A
:103DA8006002116007F160021268B2FA82F252B240
:103DB80042F0200252B2D2B202F01F02012101FAEF
:103DC80002F21340002B9DD12948294B5B6823F44C
:103DD80074123B1D1B68596A3B1D1B681B6A0B4309
:103DE8001343436007F15C034FF080721A6007F1D8
:103DF8005C031B6893FAA3F207F158031A6007F1F2
:103E080058031B68B3FA83F303F1845303F584134F
:103E18009B001A4601231360FCF72CFAC7F8F80137
:103E280009E0FCF727FA0246D7F8F831D31A022B33
:103E380001D90323DFE007F154034FF000721A6041
:103E480007F154031B6893FAA3F207F150031A60B1
:103E580007F150031B68B3FA83F3DBB25B09DBB2EB
:103E680043F00103DBB2012B04D1014B1B681DE0B9
:103E78000010024007F14C034FF000721A6007F17E
:103E88004C031B6893FAA3F207F148031A6007F181
:103E980044034FF000721A6007F144031B6893FA59
:103EA800A3F207F140031A60554B5B6A07F13C0225
:103EB8004FF00071116007F13C02126892FAA2F10A
:103EC80007F13802116007F138021268B2FA82F27B
:103ED80052B242F0200252B2D2B202F01F020121C5
:103EE80001FA02F21340002B9BD083E007F1340360
:103EF8004FF080721A6007F134031B6893FAA3F23B
:103F080007F130031A6007F130031B68B3FA83F333
:103F180003F1845303F584139B001A4600231360AE
:103F2800FCF7A8F9C7F8F80109E0FCF7A3F902467D
:103F3800D7F8F831D31A022B01D903235BE007F134
:103F48002C034FF000721A6007F12C031B6893FAD8
:103F5800A3F207F128031A6007F128031B68B3FAD4
:103F680083F3DBB25B09DBB243F00103DBB2012B65
:103F780002D1234B1B681BE007F124034FF00072AA
:103F88001A6007F124031B6893FAA3F207F12003D0
:103F98001A6007F11C034FF000721A6007F11C0346
:103FA8001B6893FAA3F207F118031A60144B5B6AB3
:103FB80007F114024FF00071116007F11402126842
:103FC80092FAA2F107F11002116007F110021268CB
:103FD800B2FA82F252B242F0200252B2D2B202F0E7
:103FE8001F02012101FA02F21340002B9DD101E0CA
:103FF800012300E00023184607F50077BD4680BD81
:104008000010024080B59EB000AF78603960002390
:104018007B67A74B1B6803F007023B689A4210D2E4
:10402800A349A34B1B6823F007023B6813430B60AB
:104038009F4B1B6803F007023B689A4201D001239B
:1040480075E17B681B6803F00203002B08D09949CF
:10405800984B5B6823F0F0027B689B6813434B60C6
:104068007B681B6803F00103002B00F009817B6863
:104078005B68012B3DD14FF400333B673B6F93FAEC
:10408800A3F3FB66FB6EB3FA83F3DBB25B09DBB227
:1040980043F00103DBB2012B02D1864B1B680FE012
:1040A8004FF40033BB66BB6E93FAA3F37B664FF401
:1040B80000333B663B6E93FAA3F3FB657D4B5B6A6B
:1040C8004FF40032BA65BA6D92FAA2F27A657A6D47
:1040D800B2FA82F252B242F0200252B2D2B202F0E6
:1040E8001F02012101FA02F21340002B7DD10123A6
:1040F8001DE17B685B68022B3DD14FF000733B6587
:104108003B6D93FAA3F3FB64FB6CB3FA83F3DBB266
:104118005B09DBB243F00103DBB2012B02D1654B33
:104128001B680FE04FF00073BB64BB6C93FAA3F3FA
:104138007B644FF000733B643B6C93FAA3F3FB631F
:104148005C4B5B6A4FF00072BA63BA6B92FAA2F2E8
:104158007A637A6BB2FA82F252B242F0200252B219
:10416800D2B202F01F02012101FA02F21340002B21
:104178003BD10123DBE002233B633B6B93FAA3F3C0
:10418800FB62FB6AB3FA83F3DBB25B09DBB243F091
:104198000103DBB2012B02D1464B1B680DE0022361
:1041A800BB62BB6A93FAA3F37B6202233B623B6A5E
:1041B80093FAA3F3FB613F4B5B6A0222BA61BA69C7
:1041C80092FAA2F27A617A69B2FA82F252B242F0B3
:1041D800200252B2D2B202F01F02012101FA02F209
:1041E8001340002B01D10123A1E03249314B5B6818
:1041F80023F003027B685B6813434B60FCF73AF8D3
:1042080078677B685B68012B12D10AE0FCF732F80B
:1042180002467B6FD31A41F28832934201D90323B5
:1042280085E0244B5B6803F00C03042BEED127E0F8
:104238007B685B68022B1DD10AE0FCF71BF802467D
:104248007B6FD31A41F28832934201D903236EE07F
:10425800184B5B6803F00C03082BEED110E0FCF759
:1042680009F802467B6FD31A41F28832934201D98A
:1042780003235CE00F4B5B6803F00C03002BEED1CB
:104288000B4B1B6803F007023B689A4214D9084994
:10429800074B1B6823F007023B6813430B60044B72
:1042A8001B6803F007023B689A4205D001233EE0F1
:1042B80000200240001002407B681B6803F00403E2
:1042C800002B08D01C491C4B5B6823F4E0627B6818
:1042D800DB6813434B607B681B6803F00803002B03
:1042E80009D01549144B5B6823F460527B681B693D
:1042F800DB0013434B6000F025F801460E4B5B686A
:1043080003F0F002F0233B613B6993FAA3F3FB60EF
:10431800FB68B3FA83F322FA03F3084AD35C21FA61
:1043280003F3074A13600020FBF760FF00231846D9
:104338007837BD4680BD00BF001002407C6A000887
:104348001801002080B48BB000AF0023FB6100236C
:10435800BB6100237B6200237B6100233B62294B06
:104368005B68FB61FB6903F00C03042B02D0082B8C
:1043780003D03CE0244B3B623CE0FB6903F4701241
:104388004FF47013BB60BB6893FAA3F37B607B6840
:10439800B3FA83F322FA03F31C4AD35C7B61194B0B
:1043A800DB6A03F00F020F233B613B6993FAA3F327
:1043B800FB60FB68B3FA83F322FA03F3144AD35C75
:1043C800BB61FB6903F48033002B08D00E4ABB693C
:1043D800B2FBF3F37A6902FB03F37B6204E07B69C7
:1043E8000C4A02FB03F37B627B6A3B6202E0064BEA
:1043F8003B6200BF3B6A18462C37BD465DF8047B1C
:10440800704700BF0010024000127A005C6A000882
:104418006C6A000800093D0080B400AF034B1B68BC
:104428001846BD465DF8047B704700BF18010020A0
:1044380080B592B000AF786000233B640023FB6333
:104448007B681B6803F48033002B00F0D6800023C0
:1044580087F847304D4BDB6903F08053002B0ED1B2
:104468004A4A4A4BDB6943F08053D361474BDB69C7
:1044780003F08053BB60BB68012387F84730444B87
:104488001B6803F48073002B18D1414A404B1B680A
:1044980043F480731360FBF7EDFE386408E0FBF724
:1044A800E9FE02463B6CD31A642B01D903234AE187
:1044B800374B1B6803F48073002BF0D0334B1B6A17
:1044C80003F44073FB63FB6B002B00F083807B6875
:1044D8005B6803F44072FB6B9A427BD02B4B1B6AE0
:1044E80023F44073FB634FF480333B633B6B93FAD5
:1044F800A3F3FB62FB6AB3FA83F31A46254B134412
:104508009B001A46012313604FF48033BB63BB6BD7
:1045180093FAA3F37B637B6BB3FA83F31A461D4BC1
:1045280013449B001A4600231360184AFB6B13625E
:10453800FB6B03F00103002B4CD0FBF79BFE3864A8
:104548000AE0FBF797FE02463B6CD31A41F2883229
:10455800934201D90323F6E00223BB62BB6A93FAB4
:10456800A3F37B6202233B623B6A93FAA3F3FB61EA
:10457800FB69B3FA83F3DBB25B09DBB243F00203F6
:10458800DBB2022B08D1014B1B6A0DE00010024080
:1045980000700040008190100223BB61BB6993FA50
:1045A800A3F37B616A4B5B6A02223A613A6992FA29
:1045B800A2F2FA60FA68B2FA82F252B242F040020B
:1045C80052B2D2B202F01F02012101FA02F21340E4
:1045D800002BB6D05E495E4B1B6A23F440727B68A1
:1045E8005B6813430B6297F84730012B05D1584A93
:1045F800574BDB6923F08053D3617B681B6803F05A
:104608000103002B08D05249514B1B6B23F00302C6
:104618007B689B6813430B637B681B6803F020036C
:10462800002B08D04A494A4B1B6B23F010027B68C9
:10463800DB6813430B637B681B6803F40033002BB0
:1046480008D04349424B5B6823F480027B681B6BAC
:1046580013434B607B681B6803F04003002B08D0B2
:104668003B493B4B1B6B23F020027B681B691343C0
:104678000B637B681B6803F40043002B08D03449A4
:10468800334B1B6B23F040027B685B6913430B635E
:104698007B681B6803F40073002B08D02C492C4B53
:1046A8005B6823F400027B68DB6913434B607B681B
:1046B8001B6803F08003002B08D02549244BDB6AD4
:1046C80023F4F8727B689B691343CB627B681B6891
:1046D80003F48053002B08D01D491D4B1B6B23F49A
:1046E80080727B681B6A13430B637B681B6803F447
:1046F8008023002B08D01649154B1B6B23F48062CE
:104708007B685B6A13430B637B681B6803F40023B5
:10471800002B08D00E490E4B1B6B23F400627B68FC
:104728009B6A13430B637B681B6803F48013002B9D
:1047380008D00749064B1B6B23F400527B68DB6AE1
:1047480013430B63002318464837BD4680BD00BF9E
:104758000010024080B584B000AF78600B46FB7053
:104768000023FB737B681B7C002B0ED14FF4007376
:1047780002228121786801F037FE4FF4007302228B
:104788000121786801F030FE0BE0402302228121EC
:10479800786801F029FE402302220121786801F09F
:1047A80023FE082303228221786801F01DFE4FF4BE
:1047B800077001F0E3FF02467B68C3F818227B68A4
:1047C800D3F81832002B02D10123FB7326E07B6853
:1047D800D3F81832BB607B68D3F81C321B68984743
:1047E800BB680022C3F81422BB680022C3F8182251
:1047F8007B681B7C002B09D1BB68D3F804224FF4DB
:1048080000730121786801F06BFF07E0BB68D3F8FB
:10481800042240230121786801F062FFFB7B1846DF
:104828001037BD4680BD80B584B000AF78600B46B8
:10483800FB700023FB738121786801F013FE0121CE
:10484800786801F00FFE8221786801F00BFE7B6822
:10485800D3F81832002B0ED07B68D3F81C325B6873
:1048680098477B68D3F81832184601F095FF7B68A3
:104878000022C3F81822FB7B18461037BD4680BDBE
:1048880080B584B000AF786039607B68D3F818329F
:10489800FB603B681B7803F06003002B3AD0202BA9
:1048A80000D043E03B68DB88002B29D03B681B78AD
:1048B8005BB2002B11DA7B68D3F81C329B683A682C
:1048C8005078F9683A68D2889847F9683B68DB8875
:1048D8001A46786801F01AF829E03B685A78FB68AC
:1048E80083F800223B68DB88DAB2FB6883F8012290
:1048F800F9683B68DB881A46786801F035F816E0F5
:104908007B68D3F81C329B683A6850780022396873
:1049180098470CE03B685B780A2B01D00B2B05E02D
:1049280001220549786800F0F1FF00BF00BF0023AD
:1049380018461037BD4680BD7C01002080B485B084
:1049480000AF78600B46FB707B68D3F81832FB60C9
:104958007B68D3F81832002B05D0FB680022C3F817
:104968001422002300E0022318461437BD465DF8E0
:10497800047B704780B584B000AF78600B46FB704D
:104988007B68D3F81832FB60FB781946786801F029
:10499800E1FE0246FB68C3F80C227B68D3F81832A4
:1049A800002B0DD07B68D3F81C32DB68FA68D2F88C
:1049B8000402FA6802F5037211469847002300E0E2
:1049C800022318461037BD4680BD80B584B000AFBD
:1049D80078607B68D3F81832FB607B68D3F81C32A8
:1049E800002B15D0FB6893F80032FF2B10D07B68A2
:1049F800D3F81C329B68FA6892F80002F968FA68E2
:104A080092F8012292B29847FB68FF2283F80022AD
:104A1800002318461037BD4680BD000080B483B01F
:104A280000AF78607B6843221A80034B18460C3726
:104A3800BD465DF8047B70479000002080B483B0C9
:104A480000AF78607B6843221A80034B18460C3706
:104A5800BD465DF8047B70474C00002080B483B0ED
:104A680000AF78607B6843221A80034B18460C37E6
:104A7800BD465DF8047B7047D400002080B483B045
:104A880000AF78607B680A221A80034B18460C37FF
:104A9800BD465DF8047B70470800002080B485B0EF
:104AA80000AF786039600223FB733B68002B05D0A8
:104AB8007B683A68C3F81C220023FB73FB7B18460B
:104AC8001437BD465DF8047B704780B487B000AFEB
:104AD800F860B9601346FB80FB68D3F818327B6135
:104AE8007B69BA68C3F80822FA887B69C3F8102280
:104AF800002318461C37BD465DF8047B704780B418
:104B080085B000AF786039607B68D3F81832FB60F5
:104B1800FB683A68C3F80422002318461437BD46D8
:104B28005DF8047B704780B584B000AF78607B681F
:104B3800D3F81832FB607B68D3F81832002B17D0F3
:104B4800FB68D3F81432002B10D1FB680122C3F89C
:104B58001422FB68D3F80822FB68D3F810329BB202
:104B68008121786801F082FD002302E0012300E042
:104B7800022318461037BD4680BD80B584B000AF0B
:104B880078607B68D3F81832FB607B68D3F81832FA
:104B9800002B17D07B681B7C002B09D1FB68D3F84E
:104BA80004224FF400730121786801F099FD07E0B1
:104BB800FB68D3F8042240230121786801F090FDB6
:104BC800002300E0022318461037BD4680BD80B59B
:104BD80084B000AFF860B9601346FB71FB68002B26
:104BE80001D102231AE0FB68D3F81432002B03D05A
:104BF800FB680022C3F81422BB68002B03D0FB68B3
:104C0800BA68C3F81022FB68012283F8FC21FB680C
:104C1800FA791A70F86801F053FB00231846103728
:104C2800BD4680BD80B485B000AF78603960002390
:104C3800FB733B68002B06D07B683A68C3F81422E4
:104C48000023FB7301E00223FB73FB7B1846143738
:104C5800BD465DF8047B704780B582B000AF7860D0
:104C6800786801F08FFB002318460837BD4680BDE1
:104C780080B483B000AF7860002318460C37BD4677
:104C88005DF8047B704780B584B000AF78600B4650
:104C9800FB700223FB737B68D3F81432002B0CD013
:104CA8007B68D3F814321B68FA78114678689847FD
:104CB8000346002B01D10023FB73FB7B18461037FA
:104CC800BD4680BD80B582B000AF78600B46FB70F2
:104CD8007B68D3F814325B68FA781146786898478D
:104CE800002318460837BD4680BD80B582B000AFA6
:104CF800786039607B6803F502733968184600F0FC
:104D08005CFD7B680122C3F8F4217B68B3F80E329E
:104D18001A467B68C3F8F8217B6893F8083203F0D9
:104D28001F03012B0BD0022B11D0002B17D17B684E
:104D380003F502731946786800F08AF91AE07B686F
:104D480003F502731946786800F0D2F912E07B681F
:104D580003F502731946786800F0FDF90AE07B68EC
:104D680093F8083223F07F03DBB21946786801F024
:104D7800AFFB00BF002318460837BD4680BD80B58D
:104D880086B000AFF8600B467A60FB72FB7A002BA6
:104D980038D1FB6803F582737B61FB68D3F8F43183
:104DA800032B42D17B699A687B69DB689A4214D9E4
:104DB8007B699A687B69DB68D21A7B699A607B6930
:104DC800DA687B699B68934228BF13469BB21A46F0
:104DD8007968F86800F0E6FD27E0FB68D3F814323C
:104DE8001B69002B0AD0FB6893F8FC31032B05D113
:104DF800FB68D3F814321B69F8689847F86800F024
:104E0800E3FD12E0FB68D3F814329B69002B0CD049
:104E1800FB6893F8FC31032B07D1FB68D3F81432F5
:104E28009B69FA7A1146F86898470023184618379C
:104E3800BD4680BD80B586B000AFF8600B467A608D
:104E4800FB72FB7A002B6CD1FB6814337B61FB6827
:104E5800D3F8F431022B57D17B699A687B69DB68F8
:104E68009A4215D97B699A687B69DB68D21A7B6993
:104E78009A607B699B689BB21A467968F86800F06B
:104E880061FD002300220021F86801F029FC3BE0C5
:104E98007B695B687A69D268B3FBF2F102FB01F2C5
:104EA8009B1A002B1CD17B695A687B69DB689A4284
:104EB80016D37B695A68FB68D3F8F8319A420FD247
:104EC80000220021F86800F03DFDFB680022C3F8CD
:104ED800F821002300220021F86801F001FC13E00A
:104EE800FB68D3F81432DB68002B0AD0FB6893F810
:104EF800FC31032B05D1FB68D3F81432DB68F86862
:104F08009847F86800F073FDFB6893F80032012BAE
:104F18001AD1F868FFF7ACFEFB68002283F800227C
:104F280012E0FB68D3F814325B69002B0CD0FB68E5
:104F380093F8FC31032B07D1FB68D3F814325B6973
:104F4800FA7A1146F8689847002318461837BD467C
:104F580080BD80B582B000AF786040230022002178
:104F6800786801F041FA7B684022C3F81021402399
:104F780000228021786801F037FA7B6840221A62A3
:104F88007B68012283F8FC217B68D3F81832002B58
:104F980009D07B68D3F814325B687A685268D2B259
:104FA800114678689847002318460837BD4680BDE3
:104FB80080B483B000AF78600B46FB707B68FA78EA
:104FC8001A74002318460C37BD465DF8047B7047F9
:104FD80080B483B000AF78607B6893F8FC217B686D
:104FE80083F8FD217B68042283F8FC2100231846FE
:104FF8000C37BD465DF8047B704780B483B000AFC2
:1050080078607B6893F8FD217B6883F8FC21002396
:1050180018460C37BD465DF8047B704780B582B0F2
:1050280000AF78607B6893F8FC31032B0BD17B6869
:10503800D3F81432DB69002B05D07B68D3F814321F
:10504800DB6978689847002318460837BD4680BD55
:1050580080B584B000AF786039600023FB733B688B
:105068005B78092B39D801A252F823F0C550000803
:10507800D9500008E3500008CF500008E35000085A
:10508800A75000089D500008E3500008BB500008D6
:10509800B15000083968786800F036F922E03968BC
:1050A800786800F025FA1DE03968786800F05EFA43
:1050B80018E03968786800F0E1FA13E03968786830
:1050C80000F00EFB0EE03968786800F033FB09E069
:1050D8003968786800F049FB04E03968786800F0BE
:1050E800A9FB00BFFB7B18461037BD4680BD00BF3B
:1050F80080B584B000AF786039600023FB737B68AB
:1051080093F8FC31032B1BD13B689B88DBB2012B46
:1051180011D87B68D3F814329B6839687868984747
:105128003B68DB88002B10D1FB7B002B0DD1786806
:1051380000F04AFC09E03968786800F07BFB04E07D
:105148003968786800F076FB00E000BF0023184655
:105158001037BD4680BD80B584B000AF7860396037
:105168000023FB733B689B88BB733B681B7803F089
:105178006003202B08D17B68D3F814329B68396808
:10518800786898470023BAE03B685B78012B39D0F0
:10519800032B02D0002B6BD0B0E07B6893F8FC3176
:1051A800022B02D0032B0CD025E0BB7B002B27D091
:1051B800BB7B802B24D0BB7B1946786801F088F92B
:1051C8001EE03B685B88002B0AD1BB7B002B07D015
:1051D800BB7B802B04D0BB7B1946786801F078F93B
:1051E8007B68D3F814329B68396878689847786880
:1051F80000F0EAFB05E03968786800F01BFB00E086
:1052080000BF7BE07B6893F8FC31022B02D0032BB4
:105218000CD024E0BB7B002B26D0BB7B802B23D07B
:10522800BB7B1946786801F053F91DE03B685B8841
:10523800002B1BD1BB7B03F07F03002B0BD0BB7B68
:105248001946786801F07AF97B68D3F814329B68BC
:10525800396878689847786800F0B6FB06E03968DE
:10526800786800F0E7FA02E000BF47E000BF45E0D9
:105278007B6893F8FC31022B02D0032B0BD036E06D
:10528800BB7B03F07F03002B36D0BB7B19467868C5
:1052980001F01EF930E097F90E30002B08DABB7BDD
:1052A80003F07F0301331B017A681344043307E0DA
:1052B800BB7B03F07F0310331B017A68134404336C
:1052C800BB60BB7B1946786801F06EF90346002B7A
:1052D80003D0BB6801221A6002E0BB6800221A6092
:1052E800BB6802221946786800F010FB05E03968AF
:1052F800786800F09FFA00E000BF00BFFB7B18460B
:105308001037BD4680BD000080B584B000AF78601E
:1053180039603B685B881B0A9BB2013B062B00F295
:10532800C98001A252F823F04D53000865530008C4
:10533800A5530008BD540008BD540008695400086E
:105348008F5400087B68D3F810321B687A68127C87
:1053580007F10A0110469847F860B0E07B681B7CAB
:10536800002B0DD17B68D3F814329B6A07F10A022F
:1053780010469847F860FB68013302221A709EE0D5
:105388007B68D3F81432DB6A07F10A0210469847A3
:10539800F860FB68013302221A7090E03B685B8872
:1053A800DBB2052B56D801A252F823F0CD530008E2
:1053B800E5530008FD530008155400082D54000853
:1053C800455400087B68D3F810325B687A68127C11
:1053D80007F10A0110469847F86040E07B68D3F867
:1053E80010329B687A68127C07F10A0110469847C8
:1053F800F86034E07B68D3F81032DB687A68127C96
:1054080007F10A0110469847F86028E07B68D3F84E
:1054180010321B697A68127C07F10A011046984716
:10542800F8601CE07B68D3F810325B697A68127CFC
:1054380007F10A0110469847F86010E07B68D3F836
:1054480010329B697A68127C07F10A011046984766
:10545800F86004E03968786800F0ECF944E02EE080
:105468007B681B7C002B09D17B68D3F814325B6BFB
:1054780007F10A0210469847F86020E03968786812
:1054880000F0D8F930E07B681B7C002B0DD17B68DD
:10549800D3F814321B6B07F10A0210469847F860DC
:1054A800FB68013307221A7009E03968786800F050
:1054B800C1F919E03968786800F0BCF914E07B8913
:1054C800002B11D03B68DB88002B0DD03B68DA88B5
:1054D8007B89934228BF13469BB27B817B891A46FE
:1054E800F968786800F012FA1037BD4680BD00BF31
:1054F80080B584B000AF786039603B689B88002B2A
:105508002CD13B68DB88002B28D13B685B88DBB259
:1055180003F07F03FB737B6893F8FC31032B04D102
:105528003968786800F086F91CE07B68FA7B83F8B4
:10553800FE21FB7B1946786801F062F8786800F074
:1055480043FAFB7B002B04D07B68022283F8FC2102
:1055580008E07B68012283F8FC2103E03968786859
:1055680000F068F900BF1037BD4680BD80B582B035
:1055780000AF786039603B685B88DAB23E4B1A70DE
:105588003D4B1B78012B04D93968786800F052F933
:105598006FE07B6893F8FC31022B02D0032B23D0F9
:1055A80062E0354B1B78002B1AD0334B1B781A4618
:1055B8007B685A607B68032283F8FC212E4B1B789A
:1055C80019467868FFF75FFB0346022B04D1396858
:1055D800786800F02FF94CE0786800F0F5F948E0B9
:1055E800786800F0F1F944E0234B1B78002B12D1C6
:1055F8007B68022283F8FC211F4B1B781A467B68C4
:105608005A601D4B1B7819467868FFF75BFB786872
:1056180000F0DAF92DE0184B1B781A467B685B68B6
:105628009A421DD07B685B68DBB219467868FFF741
:1056380049FB114B1B781A467B685A600E4B1B7846
:1056480019467868FFF71FFB0346022B04D1396817
:10565800786800F0EFF80CE0786800F0B5F908E039
:10566800786800F0B1F904E03968786800F0E2F889
:1056780000BF0837BD4680BD7D01002080B582B0DF
:1056880000AF786039603B68DB88012B04D039684B
:10569800786800F0CFF81FE07B6893F8FC31022BA4
:1056A80002D0032B0BD012E07B6800229A607B6843
:1056B800083301221946786800F028F90CE07B6865
:1056C800043301221946786800F020F904E03968AB
:1056D800786800F0AFF800BF00BF0837BD4680BD4E
:1056E80080B582B000AF786039607B6893F8FC3190
:1056F800023B012B15D87B680122DA607B68D3F85E
:105708000432002B05D07B68DB6843F002027B681B
:10571800DA607B680C3302221946786800F0F6F8E4
:1057280004E03968786800F085F800BF00BF0837E2
:10573800BD4680BD80B582B000AF786039603B68F7
:105748005B88012B0DD17B680122C3F804227B689A
:10575800D3F814329B68396878689847786800F0FD
:1057680033F900BF0837BD4680BD80B582B000AFB1
:10577800786039607B6893F8FC31023B012B12D8C2
:105788003B685B88012B13D17B680022C3F8042295
:105798007B68D3F814329B683968786898477868CA
:1057A80000F012F904E03968786800F043F800E086
:1057B80000BF00BF0837BD4680BD80B483B000AFCE
:1057C800786039603B681A787B681A703B685A7849
:1057D8007B685A703B6802331B789AB23B68033384
:1057E8001B789BB21B029BB213449AB27B685A8007
:1057F8003B6804331B789AB23B6805331B789BB22D
:105808001B029BB213449AB27B689A803B680633AA
:105818001B789AB23B6807331B789BB21B029BB27A
:1058280013449AB27B68DA8000BF0C37BD465DF836
:10583800047B704780B582B000AF78603960802102
:10584800786800F045FE0021786800F041FE00BF4E
:105858000837BD4680BD80B586B000AFF860B96036
:105868007A600023FB75FB68002B33D0F86800F0E2
:1058780035F8034601339BB25B009AB27B681A8005
:10588800FB7D5A1CFA751A46BB6813447A6812885D
:10589800D2B21A70FB7D5A1CFA751A46BB681344BB
:1058A80003221A7012E0FB7D5A1CFA751A46BB686F
:1058B8001A44FB68591CF9601B781370FB7D5A1C4D
:1058C800FA751A46BB68134400221A70FB681B78E5
:1058D800002BE8D100BF1837BD4680BD80B485B025
:1058E80000AF78600023FB7305E0FB7B0133FB739B
:1058F8007B6801337B607B681B78002BF5D1FB7BD1
:1059080018461437BD465DF8047B704780B584B0EF
:1059180000AFF860B9601346FB80FB680222C3F849
:10592800F421FA88FB689A61FA88FB68DA61FB88D7
:10593800BA680021F86800F099FE0023184610376D
:10594800BD4680BD80B584B000AFF860B96013462D
:10595800FB80FB88BA680021F86800F087FE002306
:1059680018461037BD4680BD80B584B000AFF860DA
:10597800B9601346FB80FB680322C3F8F421FA8858
:10598800FB68C3F80821FA88FB68C3F80C21FB8878
:10599800BA680021F86800F0A3FE00231846103703
:1059A800BD4680BD80B584B000AFF860B9601346CD
:1059B800FB80FB88BA680021F86800F091FE00239C
:1059C80018461037BD4680BD80B582B000AF7860FC
:1059D8007B680422C3F8F4210023002200217868A0
:1059E80000F044FE002318460837BD4680BD80B548
:1059F80082B000AF78607B680522C3F8F4210023E9
:105A080000220021786800F06BFE00231846083752
:105A1800BD4680BD80B582B000AFFAF7D1FB00F07B
:105A280039F800F0F7F800F0B5FA00F09BF81648DE
:105A3800FAF7D2FD02211448FAF73CFE0346002B80
:105A48001ED11148FAF7ECFE03469AB20F4B1A80A2
:105A58000E4B1B8818463B460022194600F07AF97F
:105A68000A233B713B460521184600F03DFB4FF4E5
:105A780000510748FBF716FD4FF47A70FAF706FC59
:105A88003220FAF703FCD2E7A40300207E010020AD
:105A98000004004880B59CB000AF0123BB644FF4FC
:105AA800A023FB6400233B650123BB6502237B66BF
:105AB8004FF48033BB664FF48013FB6607F148034D
:105AC8001846FDF7B5FB0346002B03D0A521224855
